{
  "contractName": "SpacemanContract",
  "abi": [
    {
      "constant": true,
      "inputs": [],
      "name": "astronaut",
      "outputs": [
        {
          "name": "",
          "type": "address"
        }
      ],
      "payable": false,
      "stateMutability": "view",
      "type": "function"
    },
    {
      "constant": true,
      "inputs": [],
      "name": "shipper",
      "outputs": [
        {
          "name": "",
          "type": "address"
        }
      ],
      "payable": false,
      "stateMutability": "view",
      "type": "function"
    },
    {
      "constant": true,
      "inputs": [],
      "name": "state",
      "outputs": [
        {
          "name": "",
          "type": "uint8"
        }
      ],
      "payable": false,
      "stateMutability": "view",
      "type": "function"
    },
    {
      "constant": true,
      "inputs": [],
      "name": "arbiter",
      "outputs": [
        {
          "name": "",
          "type": "address"
        }
      ],
      "payable": false,
      "stateMutability": "view",
      "type": "function"
    },
    {
      "inputs": [
        {
          "name": "_arbiter",
          "type": "address"
        },
        {
          "name": "_shipper",
          "type": "address"
        }
      ],
      "payable": false,
      "stateMutability": "nonpayable",
      "type": "constructor"
    },
    {
      "anonymous": false,
      "inputs": [
        {
          "indexed": false,
          "name": "value",
          "type": "uint256"
        }
      ],
      "name": "Paid",
      "type": "event"
    },
    {
      "anonymous": false,
      "inputs": [
        {
          "indexed": false,
          "name": "time",
          "type": "uint256"
        }
      ],
      "name": "Received",
      "type": "event"
    },
    {
      "anonymous": false,
      "inputs": [
        {
          "indexed": false,
          "name": "value",
          "type": "uint256"
        }
      ],
      "name": "Withdraw",
      "type": "event"
    },
    {
      "constant": false,
      "inputs": [],
      "name": "pay",
      "outputs": [],
      "payable": true,
      "stateMutability": "payable",
      "type": "function"
    },
    {
      "constant": false,
      "inputs": [],
      "name": "receive",
      "outputs": [],
      "payable": false,
      "stateMutability": "nonpayable",
      "type": "function"
    },
    {
      "constant": false,
      "inputs": [],
      "name": "withdraw",
      "outputs": [],
      "payable": false,
      "stateMutability": "nonpayable",
      "type": "function"
    }
  ],
  "bytecode": "0x6060604052341561000f57600080fd5b6040516040806106ca8339810160405280805190602001909190805190602001909190505081600260006101000a81548173ffffffffffffffffffffffffffffffffffffffff021916908373ffffffffffffffffffffffffffffffffffffffff16021790555080600160006101000a81548173ffffffffffffffffffffffffffffffffffffffff021916908373ffffffffffffffffffffffffffffffffffffffff160217905550336000806101000a81548173ffffffffffffffffffffffffffffffffffffffff021916908373ffffffffffffffffffffffffffffffffffffffff16021790555050506105c3806101076000396000f300606060405260043610610083576000357c0100000000000000000000000000000000000000000000000000000000900463ffffffff1680631b9265b8146100885780633901f16b146100925780633ccfd60b146100e7578063a3e76c0f146100fc578063c18ed1a114610111578063c19d93fb14610166578063fe25e00a1461019d575b600080fd5b6100906101f2565b005b341561009d57600080fd5b6100a56102aa565b604051808273ffffffffffffffffffffffffffffffffffffffff1673ffffffffffffffffffffffffffffffffffffffff16815260200191505060405180910390f35b34156100f257600080fd5b6100fa6102cf565b005b341561010757600080fd5b61010f61044c565b005b341561011c57600080fd5b610124610538565b604051808273ffffffffffffffffffffffffffffffffffffffff1673ffffffffffffffffffffffffffffffffffffffff16815260200191505060405180910390f35b341561017157600080fd5b61017961055e565b6040518082600381111561018957fe5b60ff16815260200191505060405180910390f35b34156101a857600080fd5b6101b0610571565b604051808273ffffffffffffffffffffffffffffffffffffffff1673ffffffffffffffffffffffffffffffffffffffff16815260200191505060405180910390f35b6000809054906101000a900473ffffffffffffffffffffffffffffffffffffffff1673ffffffffffffffffffffffffffffffffffffffff163373ffffffffffffffffffffffffffffffffffffffff1614151561024d57600080fd5b6001600260146101000a81548160ff0219169083600381111561026c57fe5b02179055507f581d416ae9dff30c9305c2b35cb09ed5991897ab97804db29ccf92678e953160346040518082815260200191505060405180910390a1565b6000809054906101000a900473ffffffffffffffffffffffffffffffffffffffff1681565b600160009054906101000a900473ffffffffffffffffffffffffffffffffffffffff1673ffffffffffffffffffffffffffffffffffffffff163373ffffffffffffffffffffffffffffffffffffffff1614151561032b57600080fd5b6002600381111561033857fe5b600260149054906101000a900460ff16600381111561035357fe5b14151561035f57600080fd5b6003600260146101000a81548160ff0219169083600381111561037e57fe5b02179055507f5b6b431d4476a211bb7d41c20d1aab9ae2321deee0d20be3d9fc9b1093fa6e3d3073ffffffffffffffffffffffffffffffffffffffff16316040518082815260200191505060405180910390a1600160009054906101000a900473ffffffffffffffffffffffffffffffffffffffff1673ffffffffffffffffffffffffffffffffffffffff166108fc3073ffffffffffffffffffffffffffffffffffffffff16319081150290604051600060405180830381858888f19350505050151561044a57600080fd5b565b600260009054906101000a900473ffffffffffffffffffffffffffffffffffffffff1673ffffffffffffffffffffffffffffffffffffffff163373ffffffffffffffffffffffffffffffffffffffff161415156104a857600080fd5b600160038111156104b557fe5b600260149054906101000a900460ff1660038111156104d057fe5b1415156104dc57600080fd5b60028060146101000a81548160ff021916908360038111156104fa57fe5b02179055507fa8142743f8f70a4c26f3691cf4ed59718381fb2f18070ec52be1f1022d855557426040518082815260200191505060405180910390a1565b600160009054906101000a900473ffffffffffffffffffffffffffffffffffffffff1681565b600260149054906101000a900460ff1681565b600260009054906101000a900473ffffffffffffffffffffffffffffffffffffffff16815600a165627a7a723058208eb894e1b769a50372a5c7e5a78626d24b7e108ea51df33cb1bc31efdab7316a0029",
  "source": "pragma solidity ^0.4.13;\n\ncontract SpacemanContract {\n  address public astronaut;\n  address public shipper;\n  address public arbiter;\n\n  enum State {\n    DEPLOYED,\n    PAID,\n    RECEIVED,\n    WITHDRAWN\n  }\n  State public state;\n\n  event Paid(uint256 value);\n  event Received(uint256 time);\n  event Withdraw(uint256 value);\n\n  function SpacemanContract(address _arbiter, address _shipper) public {\n    arbiter = _arbiter;\n    shipper = _shipper;\n    astronaut = msg.sender;\n  }\n\n  function pay() public payable {\n    require(msg.sender == astronaut);\n    state = State.PAID;\n    Paid(msg.value);\n  }\n\n  function receive() public {\n    require(msg.sender == arbiter);\n    require(state == State.PAID);\n    state = State.RECEIVED;\n    Received(now);\n  }\n\n  function withdraw() public {\n    require(msg.sender == shipper);\n    require(state == State.RECEIVED);\n    state = State.WITHDRAWN;\n    Withdraw(this.balance);\n    shipper.transfer(this.balance);\n  }\n}\n",
  "sourcePath": "/Users/morganedwards/Desktop/code/blockstreet/modules/spaceman/truffle/contracts/astronaut.sol",
  "compiler": {
    "name": "solc",
    "version": "0.4.19+commit.c4cbbb05.Emscripten.clang"
  },
  "schemaVersion": "1.0.1",
  "updatedAt": "2018-02-17T09:47:06.252Z"
}